:030000000208FEF5
:0C08FE00787FE4F6D8FD75811D020945E5
:100B4200462F4C2F43205465737465720043783DE1
:100B520000554620200046783D00485A202020209B
:100B620000704620202020004C783D00754820204F
:010B72000082
:03000300010800F1
:100B7300D2A512098A120C08120BC975190B751A22
:100B830042E4FBFDFF120A3E12082412074A12092F
:0C0B9300E512001E1201A412000E80ECFE
:09000E001202F512054A02064C2B
:1001A400D2B630B6030202F4120B9FD2A5758910A1
:1001B400E4F58DF58BD2AFD2ABD28ED2B220B2FDA4
:1001C400C28EE4F514F513F512F511AF0FFCFDFE24
:1001D4007B507AC3F9F812042D8F148E138D128C70
:1001E40011AF8DEFFEAD8B7C00E42DFFEC3EFEE401
:1001F400FDE5142FF514E5133EF513ED3512F51254
:10020400EC3511F51175190B751A4F120A3A120AC9
:10021400797BA07A8679017800AF14AE13AD12AC65
:1002240011120ABDE47B0AFAF9F8120ABD7D041220
:100234000A97E47B107A27F9F8AF14AE13AD12AC29
:1002440011120ABDE47B0AFAF9F8120ABDEB243054
:10025400FB7D057F01120A9DE47BE87A03F9F8AF80
:1002640014AE13AD12AC11120ABDE47B0AFAF9F80C
:10027400120ABDEB2430FB7D067F01120A9DE47B4C
:1002840064FAF9F8AF14AE13AD12AC11120ABDE45E
:100294007B0AFAF9F8120ABDEB2430FB7D077F01D3
:1002A400120A9D7B2E7D087F01120A9DE47B0AFAC7
:1002B400F9F8AF14AE13AD12AC11120ABDE47B0A07
:1002C400FAF9F8120ABDEB2430FB7D097F01120A0A
:1002D4009DE47B0AFAF9F8AF14AE13AD12AC111217
:1002E4000ABDEB2430FB7D0A7F01120A9D120A32FB
:0102F40022E7
:10001E00D2A730A7030201A3120B9FD2A575891098
:10002E00E4F58DF58BD2AFD2ABD28E751504D2B26C
:10003E0020B2FDC28EE4F514F513F512F511AF0FD3
:10004E00FCFDFE7B507AC3F9F812042DE5142FF552
:10005E0014E5133EF513E5123DF512E5113CF511CD
:10006E00AF8DEFFEAD8B7C00E42DFFEC3EFEE4FD8C
:10007E00E5142FF514E5133EF513ED3512F512ECDC
:10008E003511F511AF14AE13AD12FCE47B14FAF971
:10009E00F8120ABD8F148E138D128C1175190B75F3
:1000AE001A4FE4FBFD7F01120A3E120A797BA07AF9
:1000BE008679017800AF14AE13AD12AC11120ABDE1
:1000CE00E47B0AFAF9F8120ABDEB2430FB7D047FBB
:1000DE0001120A9DE47B107A27F9F8AF14AE13AD26
:1000EE0012AC11120ABDE47B0AFAF9F8120ABDEB42
:1000FE002430FB7D057F01120A9DE47BE87A03F92B
:10010E00F8AF14AE13AD12AC11120ABDE47B0AFAAD
:10011E00F9F8120ABDEB2430FB7D067F01120A9D11
:10012E00E47B64FAF9F8AF14AE13AD12AC11120AF7
:10013E00BDE47B0AFAF9F8120ABDEB2430FB7D0709
:10014E007F01120A9D7B2E7D087F01120A9DE47BA2
:10015E000AFAF9F8AF14AE13AD12AC11120ABDE4DF
:10016E007B0AFAF9F8120ABDEB2430FB7D097F01F8
:10017E00120A9DE47B0AFAF9F8AF14AE13AD12AC75
:10018E0011120ABDEB2430FB7D0A7F01120A9D126B
:06019E000A32751504226F
:03001B00020C458F
:090C4500758D3C758BB0050F3272
:1009E500D2A620A647E51564036003120C08751509
:1009F50003D28CD28EE4F514F513F512F511FBE450
:100A0500F50FE50FC3940140F9E4F50FFCFDE5147E
:100A1500250EF514E513350DF513ED3512F512EC2C
:0C0A25003511F5110BBB14D7C28CC28E2A
:010A310022A2
:03000B00020B01E4
:100B0100C0E0C0D075D000C004C005C006C00775E4
:100B11008C3C758AB0050F750800C28CAF8DEFFE55
:100B2100AD8B7C00E42DF50EEC3EF50D758D007559
:100B31008B00D28CD007D006D005D004D0D0D0E025
:010B41003281
:10064C00E5156403600302074975190B751A58FB0D
:10065C00FD7F01120A3E120A797BA07A8679017815
:10066C0000AF14AE13AD12AC11120ABDE47B0AFA42
:10067C00F9F8120ABDEB2430FB7D047F01120A9DB0
:10068C00E47B107A27F9F8AF14AE13AD12AC11124B
:10069C000ABDE47B0AFAF9F8120ABDEB2430FB7DA3
:1006AC00057F01120A9DE47BE87A03F9F8AF14AEDA
:1006BC0013AD12AC11120ABDE47B0AFAF9F8120A56
:1006CC00BDEB2430FB7D067F01120A9DE47B64FAAE
:1006DC00F9F8AF14AE13AD12AC11120ABDE47B0ADB
:1006EC00FAF9F8120ABDEB2430FB7D077F01120AE0
:1006FC009DE47B0AFAF9F8AF14AE13AD12AC1112EB
:10070C000ABDE47B0AFAF9F8120ABDEB2430FB7D32
:10071C00087F01120A9DE47B0AFAF9F8AF14AE13B4
:10072C00AD12AC11120ABDEB2430FB7D097F011216
:0E073C000A9D75190B751A5C7D0A120A3A2285
:10054A00E5156402600302064B75190B751A4FFB19
:10055A00FD7F01120A3E120A797BA07A8679017818
:10056A0000AF14AE13AD12AC11120ABDE47B0AFA45
:10057A00F9F8120ABDEB2430FB7D047F01120A9DB3
:10058A00E47B107A27F9F8AF14AE13AD12AC11124E
:10059A000ABDE47B0AFAF9F8120ABDEB2430FB7DA6
:1005AA00057F01120A9DE47BE87A03F9F8AF14AEDD
:1005BA0013AD12AC11120ABDE47B0AFAF9F8120A59
:1005CA00BDEB2430FB7D067F01120A9DE47B64FAB1
:1005DA00F9F8AF14AE13AD12AC11120ABDE47B0ADE
:1005EA00FAF9F8120ABDEB2430FB7D077F01120AE3
:1005FA009DE47B0AFAF9F8AF14AE13AD12AC1112EE
:10060A000ABDE47B0AFAF9F8120ABDEB2430FB7D35
:10061A00087F01120A9DE47B0AFAF9F8AF14AE13B7
:10062A00AD12AC11120ABDEB2430FB7D097F011219
:10063A000A9D75190B751A63E4FB7D0A7F01120A7C
:02064A003E224E
:1002F500E5156401600302042C75190B751A6AFB78
:10030500FD7F01120A3E7B807A967998120A7F7BDF
:10031500407A42790F7800AF14AE13AD12AC1112CA
:100325000ABDE47B0AFAF9F8120ABDEB2430FB7D1D
:10033500047F01120A9D7BA07A8679017800AF14AB
:10034500AE13AD12AC11120ABDE47B0AFAF9F8122C
:100355000ABDEB2430FB7D057F01120A9DE47B106D
:100365007A27F9F8AF14AE13AD12AC11120ABDE439
:100375007B0AFAF9F8120ABDEB2430FB7D067F01F2
:10038500120A9DE47BE87A03F9F8AF14AE13AD12B7
:10039500AC11120ABDE47B0AFAF9F8120ABDEB2486
:1003A50030FB7D077F01120A9DE47B64FAF9F8AF03
:1003B50014AE13AD12AC11120ABDE47B0AFAF9F8BA
:1003C500120ABDEB2430FB7D087F01120A9DE47BF8
:1003D5000AFAF9F8AF14AE13AD12AC11120ABDE466
:1003E5007B0AFAF9F8120ABDEB2430FB7D097F017F
:1003F500120A9D7B2E7D0A7F01120A9DE47B0AFA73
:10040500F9F8AF14AE13AD12AC11120ABDEB2430DE
:10041500FB7D0B7F01120A9D75190B751A6EE4FBA6
:080425007D0C7F01120A3E224A
:100C0800758951758C3C758AB0D2AFD2A9E4F508C4
:050C1800F58DF58B22B3
:10074A00D2A130A103020823E51564026003120C4A
:10075A0008751502D28CD28EE4F50FE50FD3940AF0
:10076A0040F9E4F50FC28CC28E850D0B850E0CD3B1
:10077A00E50C950AE50B9509400685090B850A0CD7
:10078A00C3E50C9441E50B94005006750B00750CFB
:10079A0041E50C450B7003020823AE09AF0AAB070B
:1007AA00AA06E4F9F8FCFD12042D8F148E138D129B
:1007BA008C11C006C007AE0BAF0CAB07AA06E4F952
:1007CA00F8D007D006120ABD8F148E138D128C1121
:1007DA00E47BD07A07F9F812042D8F148E138D1248
:1007EA008C11C006C007AE0BAF0CAB07AA06E4F922
:1007FA00F8D007D006120ABD8F148E138D128C11F1
:10080A00C3E51494D0F514E5139407F513E512948F
:0A081A0000F512E5119400F511221B
:10082400D2A030A0030208FDE51564016003120C98
:1008340008751501D28CD28EE4F50FE50FD3940F11
:1008440040F9E4F50FC28CC28E850D0B850E0CD3D6
:10085400E50C950AE50B9509400685090B850A0CFC
:10086400C3E50C9441E50B94005006750B00750C20
:1008740041E50C450B70030208FDAE09AF0AAB0756
:10088400AA06E4F9F8FCFD12042D8F148E138D12C0
:100894008C11C006C007AE0BAF0CAB07AA06E4F977
:1008A400F8D007D006120ABD8F148E138D128C1146
:1008B400E47BE87A03F9F812042D8F148E138D1259
:1008C4008C11C006C007AE0BAF0CAB07AA06E4F947
:1008D400F8D007D006120ABD8F148E138D128C1116
:1008E400C3E51494E8F514E5139403F513E51294A1
:0A08F40000F512E5119400F5112241
:100BC900E4FFD2A030A0FDD28CD28EE50FD3940AD7
:100BD90040F9E4F50FC28CC28E850D09850E0A0F06
:030BE900BF05DF66
:010BEC0022E6
:0C0A320075190B751A537D0BE4FB7F0156
:060A3E008F168D178B18C6
:100A4400E4F51B53160153170FE51A251BF582E431
:100A54003519F583E493FB601BE517D3940F501409
:100A6400AD17AF16120A9D051B0517AF187E0012AD
:040A74000BA780D577
:010A7800225B
:10098A00E4F580FDFC7F38120BF17F057E00120B27
:10099A00A7E4FDFC7F38120BF17F057E00120BA73E
:1009AA00E4FDFC7F38120BF17F057E00120BA77F56
:1009BA0038120BED7F08120BED7D017C007F0112CE
:1009CA000BF17D017C007F06120BF17D017C007F1B
:0B09DA000C120BF17F647E00020BA7E3
:100C32008F1D120C1D851D80D2A4C2A3C2A2C2A206
:030C4200D2A22219
:040BED007D017C000A
:100BF1008F1DED4C6003120C1D851D80C2A4C2A384
:070C0100C2A2C2A2D2A2228E
:100C1D007580FFC2A4D2A3C2A2C2A2D2A2E5802037
:050C2D00E7FBAF80228F
:100A79007B407A42790F7800AF14AE13AD12AC11F6
:100A8900120ABDE47B0AFAF9F8120ABD7D03EB24C8
:040A990030FB7F01AE
:100A9D008B1CAE0553070153060FEF600343064051
:100AAD00430680AF06E4FDFC120BF1AF1C020C32C5
:080B9F00E4F50FC2A57FFAFE88
:100BA70000E4FDFCC3ED9FEC9E50167B467A00EBFC
:100BB7001B8A8370011A458370F50DBD00010C80F7
:010BC700E34A
:010BC800220A
:10090A00020B73E493A3F8E493A34003F68001F285
:10091A0008DFF48029E493A3F85407240CC8C333EE
:10092A00C4540F4420C8834004F456800146F6DFBD
:10093A00E4800B0102040810204080900003E47E4A
:10094A00019360BCA3FF543F30E509541FFEE493B2
:10095A00A360010ECF54C025E060A840B8E493A379
:10096A00FAE493A3F8E493A3C8C582C8CAC583CAA4
:10097A00F0A3C8C582C8CAC583CADFE9DEE780BE5C
:0100060000F9
:10042D00E88FF0A4CC8BF0A42CFCE98EF0A42CFC6E
:10043D008AF0EDA42CFCEA8EF0A4CDA8F08BF0A4EC
:10044D002DCC3825F0FDE98FF0A42CCD35F0FCEB4B
:10045D008EF0A4FEA9F0EB8FF0A4CFC5F02ECD3910
:0F046D00FEE43CFCEAA42DCE35F0FDE43CFC227D
:100ABD00C2D5E830E70FB2D5E4C39BFBE49AFAE464
:100ACD0099F9E498F8EC30E717B2D5120AF312044D
:100ADD00B8E4C39BFBE49AFAE499F9E498F880032F
:100AED001204B830D50DE4C39FFFE49EFEE49DFDD6
:040AFD00E49CFC2257
:10047C0075F008758200EF2FFFEE33FECD33CDCC37
:10048C0033CCC58233C5829BED9AEC99E5829840BA
:10049C000CF582EE9BFEED9AFDEC99FC0FD5F0D697
:1004AC00E4CEFBE4CDFAE4CCF9A88222B800C1B9C1
:1004BC000059BA002DEC8BF084CFCECDFCE5F0CBFF
:1004CC00F97818EF2FFFEE33FEED33FDEC33FCEB38
:1004DC0033FB10D703994004EB99FB0FD8E5E4F9F3
:1004EC00FA227818EF2FFFEE33FEED33FDEC33FCE0
:1004FC00C933C910D7059BE99A4007EC9BFCE99AD4
:10050C00F90FD8E0E4C9FAE4CCFB2275F010EF2F18
:10051C00FFEE33FEED33FDCC33CCC833C810D70718
:10052C009BEC9AE899400AED9BFDEC9AFCE899F853
:0E053C000FD5F0DAE4CDFBE4CCFAE4C8F922E6
:00000001FF
